:020000040800F2
:1000000000000220AD6400088157000889570008ED
:100010009157000899570008A157000800000000F8
:10002000000000000000000000000000A9570008C8
:10003000B757000800000000C5570008D357000854
:10004000FD640008FD640008FD640008FD6400080C
:10005000FD640008FD640008FD640008FD640008FC
:10006000FD640008FD640008FD640008FD640008EC
:10007000FD640008FD640008FD640008FD640008DC
:10008000E1570008F5570008FD6400080000000073
:1000900000000000000000000000000009580008F7
:1000A000FD640008FD640008FD640008FD640008AC
:1000B000FD640008FD640008FD640008FD6400089C
:1000C000FD640008FD640008FD640008FD6400088C
:1000D000FD640008FD640008FD64000800000000E5
:1000E00017580008FD640008FD64000800000000C7
:1000F000000000000000000000000000FD64000897
:1001000000000000FD640008FD640008FD640008B4
:1001100000000000000000000000000000000000DF
:100120002D5800084158000855580008FD64000883
:10013000FD64000800000000000000000000000056
:10014000000000000000000000000000FD64000846
:10015000FD640008695800087D580008FD64000827
:10016000FD640008FD6400080000000000000000BD
:10017000000000000000000000000000000000007F
:1001800000000000FD640008000000000000000006
:08019000FD640008FD64000895
:1001A00010B5054C237833B9044B13B10448AFF3B1
:1001B00000800123237010BD7000002000000000AB
:1001C00068BD000808B5034B1BB103490348AFF3F2
:1001D000008008BD000000007400002068BD000819
:1001E00001F0FF01102A2BDB10F0070F08D010F8E8
:1001F000013B013A8B422DD010F0070F42B3F6D1EC
:10020000F0B441EA012141EA014122F007047FF004
:1002100000070023F0E80256083C85EA010586EA5B
:10022000010685FA47F5A3FA87F586FA47F6A5FA97
:1002300087F68EB9EED1F0BC01F0FF0102F00702A3
:1002400032B110F8013B013A83EA010313B1F8D14E
:100250000020704701387047002D06BF354603382F
:10026000073815F0010F07D1013015F4807F02BF68
:10027000013015F4C03F0130F0BC0138704700BFB9
:1002800081F0004102E000BF83F0004330B54FEA47
:1002900041044FEA430594EA050F08BF90EA020FB4
:1002A0001FBF54EA000C55EA020C7FEA645C7FEA47
:1002B000655C00F0E2804FEA5454D4EB5555B8BF6A
:1002C0006D420CDD2C4480EA020281EA030382EADB
:1002D000000083EA010180EA020281EA0303362D6D
:1002E00088BF30BD11F0004F4FEA01314FF4801C40
:1002F0004CEA113102D0404261EB410113F0004F52
:100300004FEA03334CEA133302D0524263EB430308
:1003100094EA050F00F0A780A4F10104D5F1200EA6
:100320000DDB02FA0EFC22FA05F2801841F1000101
:1003300003FA0EF2801843FA05F359410EE0A5F1D5
:1003400020050EF1200E012A03FA0EFC28BF4CF006
:10035000020C43FA05F3C01851EBE37101F00045BC
:1003600007D54FF0000EDCF1000C7EEB00006EEBC9
:100370000101B1F5801F1BD3B1F5001F0CD3490853
:100380005FEA30004FEA3C0C04F101044FEA4452AA
:1003900012F5800F80F09A80BCF1004F08BF5FEA31
:1003A000500C50F1000041EB045141EA050130BD11
:1003B0005FEA4C0C404141EB0101013C28BFB1F523
:1003C000801FE9D291F0000F04BF01460020B1FA6E
:1003D00081F308BF2033A3F10B03B3F120020CDA41
:1003E0000C3208DD02F1140CC2F10C0201FA0CF01F
:1003F00021FA02F10CE002F11402D8BFC2F1200C84
:1004000001FA02F120FA0CFCDCBF41EA0C01904039
:10041000E41AA2BF01EB0451294330BD6FEA040482
:100420001F3C1CDA0C340EDC04F11404C4F120026D
:1004300020FA04F001FA02F340EA030021FA04F37F
:1004400045EA030130BDC4F10C04C4F1200220FAD6
:1004500002F001FA04F340EA0300294630BD21FA14
:1004600004F0294630BD94F0000F83F4801306BFDA
:1004700081F480110134013D4EE77FEA645C18BFCE
:100480007FEA655C29D094EA050F08BF90EA020F65
:1004900005D054EA000C04BF1946104630BD91EA5D
:1004A000030F1EBF0021002030BD5FEA545C05D160
:1004B0004000494128BF41F0004130BD14F580049F
:1004C0003CBF01F5801130BD01F0004545F0FE4113
:1004D00041F470014FF0000030BD7FEA645C1ABF48
:1004E000194610467FEA655C1CBF0B46024650EA7F
:1004F000013406BF52EA033591EA030F41F40021AB
:1005000030BD00BF90F0000F04BF0021704730B530
:100510004FF4806404F132044FF000054FF0000105
:1005200050E700BF90F0000F04BF0021704730B5C6
:100530004FF4806404F1320410F0004548BF40429B
:100540004FF000013EE700BF42004FEAE2014FEAF0
:1005500031014FEA02701FBF12F07F4393F07F4FCB
:1005600081F06051704732F07F4208BF704793F0CE
:100570007F4F04BF41F40021704730B54FF46074E1
:1005800001F0004521F000411CE700BF50EA0102E4
:1005900008BF704730B54FF000050AE050EA01028D
:1005A00008BF704730B511F0004502D5404261EBFD
:1005B00041014FF4806404F132045FEA915C3FF43E
:1005C000D8AE4FF003025FEADC0C18BF03325FEADB
:1005D000DC0C18BF033202EBDC02C2F1200300FA8C
:1005E00003FC20FA02F001FA03FE40EA0E0021FAB1
:1005F00002F11444BDE600BF70B54FF0FF0C4CF49F
:10060000E06C1CEA11541DBF1CEA135594EA0C0F50
:1006100095EA0C0F00F0DEF82C4481EA030621EA8B
:100620004C5123EA4C5350EA013518BF52EA0335C6
:1006300041F4801143F4801338D0A0FB02CE4FF078
:100640000005E1FB02E506F00042E0FB03E54FF0A8
:100650000006E1FB03569CF0000F18BF4EF0010EA0
:10066000A4F1FF04B6F5007F64F5407404D25FEA9C
:100670004E0E6D4146EB060642EAC62141EA55514F
:100680004FEAC52040EA5E504FEACE2EB4F1FD0C91
:1006900088BFBCF5E06F1ED8BEF1004F08BF5FEA0F
:1006A000500E50F1000041EB045170BD06F00046C1
:1006B00046EA010140EA020081EA0301B4EB5C046E
:1006C000C2BFD4EB0C0541EA045170BD41F4801166
:1006D0004FF0000E013C00F3AB8014F1360FDEBF8B
:1006E000002001F0004170BDC4F10004203C35DA67
:1006F0000C341BDC04F11404C4F1200500FA05F3EA
:1007000020FA04F001FA05F240EA020001F000428A
:1007100021F0004110EBD37021FA04F642EB060100
:100720005EEA430E08BF20EAD37070BDC4F10C042A
:10073000C4F1200500FA04F320FA05F001FA04F2EE
:1007400040EA020001F0004110EBD37041F10001DA
:100750005EEA430E08BF20EAD37070BDC4F12005E5
:1007600000FA05F24EEA020E20FA04F301FA05F24D
:1007700043EA020321FA04F001F0004121FA04F2F5
:1007800020EA020000EBD3705EEA430E08BF20EAC5
:10079000D37070BD94F0000F0FD101F000464000FF
:1007A00041EB010111F4801F08BF013CF7D041EA81
:1007B000060195F0000F18BF704703F00046520085
:1007C00043EB030313F4801F08BF013DF7D043EA56
:1007D0000603704794EA0C0F0CEA135518BF95EA0C
:1007E0000C0F0CD050EA410618BF52EA4306D1D193
:1007F00081EA030101F000414FF0000070BD50EAB2
:10080000410606BF1046194652EA430619D094EA3B
:100810000C0F02D150EA013613D195EA0C0F05D125
:1008200052EA03361CBF104619460AD181EA030179
:1008300001F0004141F0FE4141F470014FF0000031
:1008400070BD41F0FE4141F4780170BD70B54FF0CC
:10085000FF0C4CF4E06C1CEA11541DBF1CEA13554C
:1008600094EA0C0F95EA0C0F00F0A7F8A4EB05042E
:1008700081EA030E52EA03354FEA013100F0888025
:100880004FEA03334FF0805545EA131343EA1263EE
:100890004FEA022245EA111545EA10654FEA0026A3
:1008A0000EF000419D4208BF964244F1FD0404F55C
:1008B000407402D25B084FEA3202B61A65EB0305B8
:1008C0005B084FEA32024FF480104FF4002CB6EB75
:1008D000020E75EB030E22BFB61A754640EA0C00F5
:1008E0005B084FEA3202B6EB020E75EB030E22BF35
:1008F000B61A754640EA5C005B084FEA3202B6EB76
:10090000020E75EB030E22BFB61A754640EA9C0034
:100910005B084FEA3202B6EB020E75EB030E22BF04
:10092000B61A754640EADC0055EA060E18D04FEAC2
:10093000051545EA16754FEA06164FEAC30343EA62
:1009400052734FEAC2025FEA1C1CC0D111F4801F2F
:100950000BD141EA00014FF000004FF0004CB6E728
:1009600011F4801F04BF01430020B4F1FD0C88BFC7
:10097000BCF5E06F3FF6AFAEB5EB030C04BFB6EBD2
:10098000020C5FEA500C50F1000041EB045170BDC5
:100990000EF0004E4EEA113114EB5C04C2BFD4EBF2
:1009A0000C0541EA045170BD41F480114FF0000E76
:1009B000013C90E645EA060E8DE60CEA135594EAF2
:1009C0000C0F08BF95EA0C0F3FF43BAF94EA0C0FF5
:1009D0000AD150EA01347FF434AF95EA0C0F7FF46A
:1009E00025AF104619462CE795EA0C0F06D152EABE
:1009F00003353FF4FDAE1046194622E750EA4106A2
:100A000018BF52EA43067FF4C5AE50EA41047FF4B2
:100A10000DAF52EA43057FF4EBAE12E74A0011D264
:100A200012F5001211D20DD56FF47873B3EB625248
:100A30000ED44FEAC12343F0004343EA505323FA54
:100A400002F070474FF00000704750EA013002D1C9
:100A50004FF0FF3070474FF0000070474FEA4102FF
:100A6000B2F1E04324BFB3F5001CDCF1FE5C0DD90C
:100A700001F0004C4FEAC0024CEA5070B2F1004F56
:100A800040EB830008BF20F00100704711F0804F59
:100A900021D113F13872BCBF01F00040704741F41E
:100AA00080114FEA5252C2F11802C2F1200C10FA22
:100AB0000CF320FA02F018BF40F001004FEAC12306
:100AC0004FEAD32303FA0CFC40EA0C0023FA02F3AA
:100AD0004FEA4303CCE77FEA625307D150EA013380
:100AE0001EBF4FF0FE4040F44000704701F0004050
:100AF00040F0FE4040F40000704700BF53B94AB9CF
:100B0000002908BF00281CBF4FF0FF314FF0FF3015
:100B100000F088B9ADF1080C6DE904CE00F006F8DC
:100B2000DDF804E0DDE9022304B070472DE9F04769
:100B3000089D8E4604468846002B4AD18A421746B5
:100B400062D9B2FA82F64EB1C6F1200301FA06F874
:100B500020FA03F3B74043EA0808B4404FEA174EBF
:100B60001FFA87FCB8FBFEF1230C0EFB118843EA49
:100B7000084301FB0CF29A4209D9FB1801F1FF303E
:100B800080F0EA809A4240F2E78002393B449A1AA8
:100B9000A3B2B2FBFEF00EFB102243EA024300FBBD
:100BA0000CFC9C4509D9FB1800F1FF3280F0D6807F
:100BB0009C4540F2D3803B44023840EA0140A3EB1D
:100BC0000C0300211DB1F3400022C5E90032BDE84D
:100BD000F0878B4205D90DB1C5E900010021084617
:100BE000F5E7B3FA83F1002946D1734502D3824277
:100BF00000F20581841A6EEB030201209046002D5D
:100C0000E5D0C5E90048E2E7002A00F09080B2FA9A
:100C100082F6002E40F0A4808A1A030C4FEA174E89
:100C200080B2BCB20121B2FBFEFC0EFB1C2243EAE7
:100C3000024304FB0CF29A4207D9FB180CF1FF386F
:100C400002D29A4200F2E080C4469B1AB3FBFEF245
:100C50000EFB123340EA034302FB04F49C4207D923
:100C6000FB1802F1FF3002D29C4200F2CA80024619
:100C70001B1B42EA0C40A5E7C1F120068B4022FA7B
:100C800006F71F430EFA01F420FA06F32EFA06FEC9
:100C90004FEA1749234300FA01F81FFA87FCBEFB0D
:100CA000F9F01C0C09FB10EE44EA0E4400FB0CFEAC
:100CB000A64502FA01F209D93C1900F1FF3A80F089
:100CC0009C80A64540F2998002383C44A4EB0E0477
:100CD0001FFA83FEB4FBF9F309FB13444EEA044404
:100CE00003FB0CFCA44508D93C1903F1FF3E80F03E
:100CF0008280A4457FD9023B3C4443EA0040A4EBF8
:100D00000C04A0FB02EC64457346E14662D35FD05D
:100D10005DB1B8EB030264EB090404FA06F622FAAB
:100D200001F31E43CC40C5E9006400214FE7B1FB4D
:100D3000F2FC010C41EA0E4180B240EA01423B461E
:100D400038463C46B846BE462026B1FBF7F1A2EB3A
:100D5000080241EA0C4166E7014618E710462CE715
:100D6000C6F120022EFA02F3B740B14020FA02F297
:100D70004FEA174E0A43B3FBFEF8BCB20EFB183322
:100D8000110C41EA034108FB04F9B04089454FEAE0
:100D9000104380B23ED9791808F1FF3C01D2894551
:100DA0001FD8A1EB0901B1FBFEF909FB04F80EFB0A
:100DB000191192B242EA0142424529D2BA1809F108
:100DC000FF31C4D24245C2D2A9F102013A44BEE782
:100DD000F0459DD2BEEB02036CEB070C0138E146F7
:100DE00096E7A7EB09094944A8F1020CB1FBFEF90B
:100DF00009FB04F8DBE773467FE7504666E70846E1
:100E0000FDE63B44023A33E7ACF1020C3B441CE7FD
:100E100049469CE7A1EB0901C446B1FBFEF909FB79
:100E200004F8C4E7704700BF80B584B000AFF86035
:100E3000B9607A607B689AB24FF0FF33B9680448B2
:100E400008F0B6FE7B6818461037BD4680BD00BF6F
:100E5000043F002080B500AF01F0A2FA034683F002
:100E60000103DBB2002B01D0002328E000F088F85A
:100E7000034683F00103DBB2002B01D000231EE008
:100E800000F054F9034683F00103DBB2002B01D0DC
:100E9000002314E001F0E6F8034683F00103DBB21F
:100EA000002B01D000230AE000F072FB034683F020
:100EB0000103DBB2002B01D0002300E00123184620
:100EC00080BD80B500AF01F081FA00F0B3FA00F008
:100ED000D9F801F0D6F800F06AFB00BF80BD80B5FC
:100EE00082B000AF7860786801F078FA786800F036
:100EF00064FB00BF0837BD4680BD80B483B000AF3F
:100F0000786000BF0C37BD465DF8047B7047000079
:100F100080B582B000AF78607B68002B05D1064BAE
:100F2000064ABA21064809F095FC7B685B781846AA
:100F30000837BD4680BD00BF80BD000874C50008ED
:100F400088BD000880B582B000AF78607B68002B58
:100F500005D1084B084AE021084809F07BFC786875
:100F6000FFF7D6FF03460233DBB218460837BD460B
:100F700080BD00BF80BD00085CC5000888BD0008BA
:100F800080B500AF03220C490C4805F093FB0346E3
:100F9000002B01D000230DE0094A0721094804F085
:100FA00015F8034683F00103DBB2002B01D00023C8
:100FB00000E00123184680BD900000208C3C0020FA
:100FC0008C000020F8BD000880B483B000AF264B31
:100FD0001B8807EE903AF8EE677A9FED247A67EE69
:100FE000876A234B9B6807EE903AB8EE677AC6EEA5
:100FF000877AC7ED017A1E4B1B6807EE903AF8EE30
:10100000677ADFED1C6A87EEA67AD7ED016A9FED5D
:101010001A6AC6EE867A67EE277A9FED187A67EE2F
:10102000877A174BC3ED007A114B5B6807EE903A55
:10103000F8EE677ADFED0F6A87EEA67AD7ED016AE0
:101040009FED0D6AC6EE867A67EE277A9FED0B7AE2
:1010500067EE877A0A4BC3ED017A00BF0C37BD46B5
:101060005DF8047B704700BF2A7AFF1F00404E45A1
:101070009000002000F07F4500007A446666B6408C
:101080009C000020B0B592B000AFFFF79DFF234B4E
:101090003C1D1D460FCD0FC40FCD0FC40FCD0FC487
:1010A00095E80F0007C423801D4BD3ED007A9FED18
:1010B0001D7A67EE877AFCEEE77A17EE903AA7F88A
:1010C0004630174BD3ED017A9FED167A67EE877A9B
:1010D000FCEEE77A17EE903AA7F84430B7F84630BE
:1010E0003B80B7F844307B803A46381D022380218C
:1010F00002F056FE3B1D1846FFF724FF034687F813
:101100004330094B1B6897F84320391D184603F0FC
:101110007BFF00BF4837BD46B0BD00BF00BE000822
:101120009C00002000007A448C00002080B586B02E
:1011300004AF0023FB714FF47A7302934FF4FA73F8
:10114000019340F213730093AC2300229649974811
:1011500001F0C6FD4FF47A7302934FF4FA730193D2
:1011600040F213730093AC2304228F49904801F09E
:10117000B7FD4FF47A7302934FF4FA73019340F280
:1011800013730093AC230C228A498B4801F0A8FD0D
:101190004FF47A7302934FF4FA73019340F213738E
:1011A0000093AC2304228549854801F099FD40F263
:1011B000E2430293FA23019340F213730093AC23AA
:1011C00004227C497F4801F08BFD40F2E243029308
:1011D000FA23019340F213730093AC230022774962
:1011E000794801F07DFD4FF47A7302934FF4FA735E
:1011F000019340F213730093AC2300226D497348AE
:1012000001F06EFD40F2E2430293FA23019340F2B3
:1012100013730093AC2304226D496E4801F060FD06
:1012200040F2E2430293FA23019340F213730093D6
:10123000AC2308225F49684801F052FD40F29A3120
:101240005D4801F095FD0346FB71FB7983F00103D6
:10125000DBB2002B01D00023A2E040F29A315848C3
:1012600001F086FD0346FB71FB7983F00103DBB2DD
:10127000002B01D0002393E040F29A31514801F055
:1012800077FD0346FB71FB7983F00103DBB2002B92
:1012900001D0002384E04FF478714B4801F068FDE1
:1012A0000346FB71FB7983F00103DBB2002B01D015
:1012B000002375E0AE213D4801F05AFD0346FB7165
:1012C000FB7983F00103DBB2002B01D0002367E040
:1012D000AE21374801F04CFD0346FB71FB7983F0EA
:1012E0000103DBB2002B01D0002359E040F29A3118
:1012F000364801F03DFD0346FB71FB7983F00103A5
:10130000DBB2002B01D000234AE040F29A31314891
:1013100001F02EFD0346FB71FB7983F00103DBB284
:10132000002B01D000233BE040F29A312A4801F023
:101330001FFD0346FB71FB7983F00103DBB2002B39
:1013400001D000232CE0254802F02EFE0346FB715D
:10135000FB7983F00103DBB2002B01D000231FE0F7
:101360001F4A07211F4803F031FE0346FB71FB793A
:1013700083F00103DBB2002B01D0002310E0184BF7
:101380001B681949184603F099FE0346FB71FB7967
:1013900083F00103DBB2002B01D0002300E0FB79D6
:1013A00018460837BD4680BDE43D0020A40000205B
:1013B000BC000020743E0020D4000020BC3E002071
:1013C000EC000020040100201C010020340100205A
:1013D0002C3E00204C0100206401002080010020F0
:1013E0007C01002040BE0008ED130008B0B586B0B7
:1013F00002AF78600B46FB704FF000024FF0000325
:10140000C7E90223FB7800221C46154607F10803B2
:10141000009322462B467968044802F00BFF044BE8
:1014200001221A7000BF1037BD46B0BD80010020F8
:10143000B00D0020B0B596B000AF4B4B1B7883F0D9
:101440000103DBB2002B40F08B80474B00221A7067
:10145000464B07F118041D460FCD0FC40FCD0FC426
:101460000FCD0FC495E80F0007C423803B46002230
:101470001A605A609A60DA601A619A8266E03A46A7
:1014800007F118031146184602F0BCFA034683F030
:101490000103DBB2002B58D13B88C3F30A039BB294
:1014A0001946334801F064FC3B88C3F30A039BB23E
:1014B0001946304801F05CFC7B889B099BB23A7965
:1014C00002F00102920213439BB2C3F5F7630733A4
:1014D0001946294801F04CFC3B68C3F3CA239BB270
:1014E000C3F500631946254801F042FC3B68C3F38D
:1014F000CA239BB2C3F5056305331946204801F0A2
:1015000037FCBB88C3F34A039BB219461D4801F060
:101510002FFC7B68C3F30A339BB2BF2B08D1BB8877
:10152000C3F34A039BB21946174801F021FC0DE0B2
:101530007B68C3F30A339BB2B3F5E06F06D140F288
:101540009A31114801F014FC00E000BF07F11803C4
:1015500019460E4802F0EEFD0346002B8FD100E045
:1015600000BF5837BD46B0BDB00D002048BE0008D2
:10157000A4000020BC00002004010020D4000020B2
:10158000EC0000201C01002034010020800100201C
:1015900080B500AF00F054F8034683F00103DBB2DE
:1015A000002B01D0002300E00123184680BD80B548
:1015B00000AF00F077F800BF80BD80B582B000AF0B
:1015C0007860786800F0EAF900BF0837BD4680BD52
:1015D00080B582B000AF78607B68002B05D1064BE8
:1015E000064ABA21064809F035F97B685B78184647
:1015F0000837BD4680BD00BF88BE00089CC50008F6
:1016000090BE000880B582B000AF78607B68002B88
:1016100005D1084B084AE021084809F01BF9786811
:10162000FFF7D6FF03460233DBB218460837BD4644
:1016300080BD00BF88BE000884C5000890BE0008B9
:1016400080B500AF124803F0E3F9034683F00103CD
:10165000DBB2002B01D0002318E00E4A07210E4810
:1016600003F0B4FC034683F00103DBB2002B01D08E
:1016700000230BE0094B96220949184608F023FB8A
:101680000346002B01D0002300E00123184680BD53
:10169000540E00204C0E0020F8BE0008943F00209D
:1016A000B40D00202DE9F041CEB008AFAF4B1B7850
:1016B00083F00103DBB2002B40F05181AB4B0022E1
:1016C0001A70AB4A07F1A80311466422184609F0C4
:1016D00096FA07F14C035C220021184609F0EFF955
:1016E0004FF00003C7F814314FF00003C7F8103172
:1016F0004FF00003C7F80C3107F58C73A3F5867320
:101700009C4A1C4615460FCD0FC40FCD0FC40FCDFC
:101710000FC495E80F0007C4238007F58C73A3F569
:10172000877300221A8007F10A0396229249934890
:1017300003F02EFA02E107F14C0207F1A80311466B
:10174000184603F07DF8034683F00103DBB2002B5B
:1017500040F0F380BD6E7E6ED7F8883007EE903A89
:10176000B8EEE77ADFED866AC7EE267AFCEEE77A16
:1017700017EE903A1FFA83F8824BD3ED007A9FED73
:10178000827A67EE877AFCEEE77A17EE903A9CB29F
:10179000FB6E1846FEF7C6FE4FF000027B4BFFF7CC
:1017A00055F802460B4610461946FFF737F903462F
:1017B0009BB297F8632007F10C000292019300940A
:1017C00043463246294602F067F9714B1C6807F11F
:1017D0000C031846FFF716FF03461A4607F10C03E1
:1017E0001946204603F010FC97F86050FB6F07EE97
:1017F000903AB8EEE77AF2EE046AC7EE267AFDEE8A
:10180000E77A17EE903A1EB2D7F8803007EE903A9A
:10181000B8EEE77AF2EE046AC7EE267AFDEEE77AD2
:1018200017EE903A0FFA83FCD7F8843007EE903A1F
:10183000B8EEE77AFAEE046AC7EE267AFDEEE77AAA
:1018400017EE903A1BB27B60FA6E07EE902AB8EE64
:10185000E77ADFED506AC7EE267AFDEEE77A17EEFB
:10186000902A12B2796F07EE901AB8EE677AF2EE0C
:10187000046AC7EE267AFDEEE77A17EE901A09B2EF
:10188000B86F07EE900AB8EE677AF2EE046AC7EE18
:10189000267AFDEEE77A17EE900A00B207F10C0403
:1018A00000230793002306930590049103920022DE
:1018B0000292002201927B680093634632462946D9
:1018C000204602F043F9324B1C6807F10C0318461E
:1018D000FFF798FE03461A4607F10C031946204607
:1018E00003F092FBB7F850301CB297F8525097F8BB
:1018F000536097F854307B6097F8552097F856104E
:1019000007F10C0000230393029101927B6800937E
:1019100033462A46214602F09BF91D4B1C6807F10D
:101920000C031846FFF76EFE03461A4607F10C0338
:101930001946204603F068FB00E000BF07F1A8034A
:1019400019460E4803F0D2F80346002B7FF4F3AE9D
:10195000114B96220849184608F0B5F900E000BF7F
:1019600007F58C77BD46BDE8F08100BF500E002022
:1019700000BF000864BF0008B40D0020540E002012
:101980001CC73140200F00200000C84200408F409B
:101990004C0E002000007A44943F002080B483B0B5
:1019A00000AF78607B681A68064B1B689A4202D1C8
:1019B000054B01221A7000BF0C37BD465DF8047B51
:1019C000704700BF943F0020500E002080B582B0C9
:1019D00000AF78607B68002B05D1064B064ABA2120
:1019E000064808F037FF7B685B7818460837BD4625
:1019F00080BD00BFA4BF0008C4C50008ACBF00087C
:101A000080B582B000AF78607B68002B05D1084BB1
:101A1000084AE021084808F01DFF7868FFF7D6FF64
:101A200003460233DBB218460837BD4680BD00BF0F
:101A3000A4BF0008ACC50008ACBF0008000000004F
:101A400080B582B000AF87ED010A7868FEF77CFDB3
:101A500009A3D3E90023FEF7F9FE02460B46104620
:101A60001946FEF7FBFF034607EE903AB0EE670A11
:101A70000837BD4680BD00BFF8C1631ADCA54C40E5
:101A800080B487B000AF87ED050AC7ED040A87ED83
:101A9000031AC7ED021A87ED012A97ED057AD7EDF3
:101AA000047A37EE677AD7ED016AD7ED027A76EEDF
:101AB000E77A67EE276A97ED037AD7ED047A77EE37
:101AC000677A86EEA77AD7ED027A77EE277AB0EEBC
:101AD000670A1C37BD465DF8047B704780B582B04D
:101AE00002AF4FF4805301934D4B00939FED4D1A7D
:101AF000DFED4D0A9FED4D0A4FF40053484A4C4923
:101B00004C4800F0A9FD034683F00103DBB2002B33
:101B100001D0002380E0322004F064FD00226C211B
:101B2000444800F085FD034683F00103DBB2002B3F
:101B300001D0002370E0002219213E4800F078FD1A
:101B4000034683F00103DBB2002B01D0002363E0E6
:101B5000322004F047FD05221A21364800F068FDC6
:101B6000034683F00103DBB2002B01D0002353E0D6
:101B7000322004F037FD18221B212E4800F058FDBA
:101B8000034683F00103DBB2002B01D0002343E0C6
:101B9000322004F027FD18221C21264800F048FDC1
:101BA000034683F00103DBB2002B01D0002333E0B6
:101BB000322004F017FD03221D211E4800F038FDDD
:101BC000034683F00103DBB2002B01D0002323E0A6
:101BD000322004F007FD174800F084FF034683F02D
:101BE0000103DBB2002B01D0002315E0322004F00A
:101BF000F9FC114A0721114803F0E8F9034683F084
:101C00000103DBB2002B01D0002305E09FED0C0A9D
:101C10000C4801F0F7F801231846BD4680BD00BF0F
:101C200000040240DBF97E3F0000003A00007A3DEC
:101C3000883D0020240F0020640F002014C00008FD
:101C40008FC2753D400F0020B0B594B004AFD248AC
:101C500000F0CAFE0346002B00F0EF81CF4B3C465C
:101C60001D460FCD0FC40FCD0FC40FCD0FC495E887
:101C70000F0007C42380CA4B0293CA4B0193CA4B7F
:101C80000093CA4BCA4ACB49C34800F0A7FDC94BD1
:101C9000B3F90010C64BB3F90020C44BB3F90030C0
:101CA000C5480290C5480190C5480090BA4800F068
:101CB000BDFFBD4BB3F90010BA4BB3F90020B84BD0
:101CC000B3F90030BF480290BF480190BF48009070
:101CD000B14800F05FFFBA4BD3ED007AB74B93EDFC
:101CE000007AB54BD3ED006AB84B93ED006AB64B62
:101CF000D3ED005AB34B93ED005AF0EE452AB0EE07
:101D0000652AF0EE461AB0EE661AF0EE470AB0EE1B
:101D1000670AAF4801F098F8A94BD3ED007ABBEE03
:101D2000002AF3EE001AB3EE001AFBEE000AB0EE42
:101D3000670AFFF7A5FEF0EE407AA14BC3ED007AEB
:101D40009E4BD3ED007ABBEE002AF3EE001AB3EE01
:101D5000001AFBEE000AB0EE670AFFF791FEF0EE04
:101D6000407A964BC3ED007A934BD3ED007ABBEEED
:101D7000002AF3EE001AB3EE001AFBEE000AB0EEF2
:101D8000670AFFF77DFEF0EE407A8B4BC3ED007AD9
:101D90008E4BD3ED007A9FED8F2ADFED8F1A9FEDEA
:101DA0008E1ADFED8C0AB0EE670AFFF769FEF0EEDF
:101DB000407A864BC3ED007A834BD3ED007A9FEDDA
:101DC000852ADFED851A9FED841ADFED820AB0EED9
:101DD000670AFFF755FEF0EE407A7B4BC3ED007AC1
:101DE000784BD3ED007A9FED7B2ADFED7B1A9FEDD8
:101DF0007A1ADFED780AB0EE670AFFF741FEF0EEDF
:101E0000407A704BC3ED007A714BD3ED027A9FEDAF
:101E1000732ADFED731A9FED721ADFED700AB0EED0
:101E2000670AFFF72DFEF0EE407A694BC3ED027AA8
:101E3000674BD3ED037A9FED692ADFED691A9FEDB9
:101E4000681ADFED660AB0EE670AFFF719FEF0EEDA
:101E5000407A5F4BC3ED037A5D4BD3ED047A9FED7F
:101E60005F2ADFED5F1A9FED5E1ADFED5C0AB0EED0
:101E7000670AFFF705FEF0EE407A554BC3ED047A92
:101E8000534BD3ED027AB0EE670AFFF7D9FDF0EEBF
:101E9000407A9FED547A67EE877AFDEEE77A17EE87
:101EA000903A1CB24A4BD3ED037AB0EE670AFFF7C3
:101EB000C7FDF0EE407A9FED4B7A67EE877AFDEE34
:101EC000E77A17EE903A1DB2414BD3ED047AB0EEAB
:101ED000670AFFF7B5FDF0EE407A9FED427A67EEB4
:101EE000877AFDEEE77A17EE903A1BB238462A461B
:101EF000214601F009FF3C4B1C683B461846FFF7A2
:101F00007FFD03461A463B461946204603F07CF8FF
:101F10002E4BD3ED007AB2EE047A67EE877AFDEEAF
:101F2000E77A17EE903A19B2274BD3ED007AB2EE6A
:101F3000047A67EE877AFDEEE77A17EE903A1AB2E6
:101F4000204BD3ED007AB2EE047A67EE877AFDEE8D
:101F5000E77A17EE903A1BB2384601F08DFF224B1C
:101F60001C683B461846FFF74BFD03461A463B46A6
:101F70001946204603F048F8114BD3ED007A9FED47
:101F80001B7A67EE877AFDEEE77A17EE903A19B280
:101F90000A4BD3ED007A2BE0240F00201CC0000870
:101FA000720F0020700F00206E0F00206C0F0020B9
:101FB0006A0F0020680F00207C0F0020780F00209F
:101FC000740F0020880F0020840F0020800F002055
:101FD000400F00200000FAC40000FA44000034C39F
:101FE0000000344300401C46640F002000007A4487
:101FF0001FED027A67EE877AFDEEE77A17EE903AE8
:102000001AB2104BD3ED007A9FED0F7A67EE877A04
:10201000FDEEE77A17EE903A1BB2384601F078FFF2
:102020000A4B1C683B461846FFF7EAFC03461A4673
:102030003B461946204602F0E7FF00BF4037BD4649
:10204000B0BD00BF7C0F002000007A44640F002068
:1020500080B500AF024800F0DBFC00BF80BD00BFD0
:10206000240F002080B500AFFFF738FD034683F052
:102070000103DBB2002B01D0002300E0012318464E
:1020800080BD80B500AFFFF7DFFD00BF80BD000061
:1020900080B582B000AF78607B68002B05D1064B1D
:1020A000064ABA21064808F0D5FB7B685B781846DB
:1020B0000837BD4680BD00BF5CC00008ECC5000805
:1020C00064C0000880B582B000AF78607B68002BE8
:1020D00005D1084B084AE021084808F0BBFB7868A6
:1020E000FFF7D6FF03460233DBB218460837BD467A
:1020F00080BD00BF5CC00008D4C5000864C00008F3
:1021000080B582B000AF0023FB710123BB712D4865
:1021100001F04AFF0346FB71FB7983F00103DBB258
:10212000002B01D0002349E0274801F03DFF034682
:10213000FB71FB7983F00103DBB2002B01D000239C
:102140003CE0224A0721224802F040FF0346FB718F
:10215000FB7983F00103DBB2002B01D000232DE0DB
:102160001C4A07211C4802F031FF0346FB71FB7932
:1021700083F00103DBB2002B01D000231EE0154BDE
:102180001B681649184602F099FF0346FB71FB795C
:1021900083F00103DBB2002B01D000230EE0104BD3
:1021A0001B683E220F49184607F08DFD0346BB71A0
:1021B000BB79002B01D0002300E00123184608372B
:1021C000BD4680BDD80F0020081C0020CC0F002089
:1021D000D4C00008D00F0020DCC00008E9210008AE
:1021E000000000208C0F0020B0B586B002AF7860F0
:1021F0000B46FB704FF000024FF00003C7E90223CB
:10220000FB7800221C46154607F10803009322467E
:102210002B467968034802F00DF800BF1037BD4621
:10222000B0BD00BF081C0020B0B590B000AF134B8C
:102230003C461D460FCD0FC40FCD0FC40FCD0FC4AC
:1022400095E80F0007C423800AE03B461846FFF7D5
:1022500039FF03461A463946C823094807F0A8FC47
:102260003B461946074801F065FF0346002BECD1B9
:1022700000BF00BF4037BD46B0BD00BFE4C000088E
:10228000043F0020081C0020B0B596B002AF2E4BD2
:102290001B7883F00103DBB2002B51D12A4B0022C3
:1022A0001A704FF000024FF00003C7E9102307F146
:1022B000400300934FF03E024FF0000323492448AF
:1022C00001F0B8FF234B3C461D460FCD0FC40FCD88
:1022D0000FC40FCD0FC495E80F0007C4238000235F
:1022E00087F84F303B461946194801F023FF034653
:1022F00087F84F3097F84F3083F00103DBB2002BA3
:102300000DD1154B1C683B461846FFF7DBFE034614
:102310001A463B461946204602F076FEE2E700BF29
:102320000E4B1B683E220949184607F0CCFC0346B9
:10233000002B06D00A4B0B4A6C210B4808F08AFA96
:1023400000BF5037BD46B0BDCA0F00208C0F002023
:10235000D80F0020E4C00008CC0F002000000020AF
:1023600024C10008FCC500082CC1000880B483B05B
:1023700000AF78607B681A68074B1B681B689A423D
:1023800003D1064B01221A7000E000BF0C37BD4696
:102390005DF8047B704700BF00000020CA0F0020DA
:1023A00080B582B000AF0023FB71FFF7A9FE0346A2
:1023B000FB71FB7983F00103DBB2002B01D000231A
:1023C00000E0012318460837BD4680BD80B500AF48
:1023D000FFF75AFFFFF728FF00BF80BD80B582B02E
:1023E00000AF78607868FFF7C1FF00BF0837BD46CF
:1023F00080BD000080B582B000AF78607B68002BA4
:1024000005D1094B094A0E21094808F023FA7B68D7
:1024100058687B681B890022194605F013FB00BF32
:102420000837BD4680BD00BF58C100080CC6000873
:102430005CC1000880B582B000AF78607B68002B7B
:1024400005D1094B094A1521094808F003FA7B68B0
:1024500058687B681B890122194605F0F3FA00BF12
:102460000837BD4680BD00BF58C1000814C600082B
:102470005CC1000880B586B000AFF8607A601A468B
:102480000B46FB721346BB72FB68002B05D1274B32
:10249000274A1C21274808F0DDF97B68002B05D16D
:1024A000254B234A1D21234808F0D4F9BB7A002B81
:1024B00005D1224B1E4A1E211E4808F0CBF9FB7A9B
:1024C00063F07F03DBB2FB72F868FFF793FFFB68F2
:1024D000186807F10B014FF4FA73012206F015F9A1
:1024E0000346FB75FB7D002B04D0F868FFF7A2FFC5
:1024F000002316E0FB681868BB7A9AB24FF4FA63BF
:10250000796806F046FA0346FB75FB7D002B04D084
:10251000F868FFF78FFF002303E0F868FFF78AFFF2
:10252000012318461837BD4680BD00BF58C10008BA
:102530001CC600085CC1000888C100088CC10008E6
:1025400080B586B000AFF8607A601A460B46FB7221
:102550001346BB72FB68002B05D1274B274A372156
:10256000274808F077F97B68002B05D1254B234AD3
:102570003821234808F06EF9BB7A002B05D1224B95
:102580001E4A39211E4808F065F9FB7A03F07F03E3
:10259000DBB2FB72F868FFF72DFFFB68186807F1E4
:1025A0000B014FF4FA73012206F0AFF80346FB75F6
:1025B000FB7D002B04D0F868FFF73CFF002316E0FA
:1025C000FB681868BB7A9AB24FF4FA63796806F030
:1025D0009CF80346FB75FB7D002B04D0F868FFF7E1
:1025E00029FF002303E0F868FFF724FF01231846C2
:1025F0001837BD4680BD00BF58C1000830C600086E
:102600005CC1000888C100088CC1000880B584B096
:1026100000AFF8600B467A60FB72F97A01237A68A2
:10262000F868FFF727FF034618461037BD4680BD00
:1026300080B582B000AF78600B46FB701346BB706C
:10264000BA1CF97801237868FFF77AFF0346184629
:102650000837BD4680BD000080B58AB000AFF86184
:10266000B9617A6187ED030AC7ED020A87ED011AA5
:102670007B82FB69002B05D1524B534A5C215348A6
:1026800008F0E8F8BB69002B05D1514B4E4A5D219B
:102690004E4808F0DFF87B69002B05D14D4B4A4AC4
:1026A0005E214A4808F0D6F83B6B002B05D14A4B17
:1026B000454A5F21454808F0CDF8F869FFF7BAFEB2
:1026C000FB69BA691A60FB697A695A60FB697A8AA0
:1026D0001A81FB693A6BDA60FB69BA8E1A82FB6970
:1026E000FA685A61FB69BA689A61002387F8263054
:1026F000002387F82530002387F827301CE007F1F6
:1027000025031A467521F869FFF780FF034687F80D
:10271000263097F82530122B03D197F82630002B5E
:102720000ED197F82730042B01D1002345E097F80C
:102730002730013387F8273097F82730042BDED96C
:1027400080226B21F869FFF773FF034687F8263074
:10275000322003F047FF97F8263083F00103DBB205
:10276000002B01D0002328E001226B21F869FFF73C
:102770005FFF034687F82630322003F033FF97F8D7
:10278000263083F00103DBB2002B01D0002314E0DC
:1027900001223821F869FFF74BFF034687F82630FE
:1027A000322003F01FFF97F8263083F00103DBB2DD
:1027B000002B01D0002300E0012318462837BD4636
:1027C00080BD00BF58C1000844C600085CC10008B5
:1027D00098C10008A0C10008A8C1000880B588B051
:1027E00000AFF860B9607A603B60BB68002B05D130
:1027F000424B434A9021434808F02CF87B68002B59
:1028000005D1414B3E4A91213E4808F023F83B68F0
:10281000002B05D13D4B3A4A92213A4808F01AF86C
:10282000BB6A002B05D13A4B354A9321354808F055
:1028300011F8FB6A002B05D1364B314A94213148FF
:1028400008F008F83B6B002B05D1334B2C4A95213F
:102850002C4807F0FFFF07F110020E233B21F86818
:10286000FFF708FE0346FB77FB7F83F00103DBB233
:10287000002B01D0FB7F3CE03B7C1BB21B021AB259
:102880007B7C1BB213431AB2BB681A80BB7C1BB2A1
:102890001B021AB2FB7C1BB213431AB27B681A806C
:1028A0003B7D1BB21B021AB27B7D1BB213431AB2D3
:1028B0003B681A803B7E1BB21B021AB27B7E1BB2A6
:1028C00013431AB2BB6A1A80BB7E1BB21B021AB238
:1028D000FB7E1BB213431AB2FB6A1A803B7F1BB20A
:1028E0001B021AB27B7F1BB213431AB23B6B1A80D6
:1028F000FB7F18462037BD4680BD00BFB4C100082D
:1029000054C600085CC10008C0C10008CCC1000862
:10291000D8C10008E4C10008F0C1000880B586B045
:1029200000AFF860B9607A603B60BB68002B05D1EE
:10293000284B294AC021294807F08CFF7B68002BCF
:1029400005D1274B244AC121244807F083FF3B6867
:10295000002B05D1234B204AC221204807F07AFFE3
:1029600007F1100300221A609A8007F11002062373
:102970003B21F868FFF77EFD0346FB75FB7D83F086
:102980000103DBB2002B01D0FB7D1EE03B7C1BB2C0
:102990001B021AB27B7C1BB213431AB2BB681A80AB
:1029A000BB7C1BB21B021AB2FB7C1BB213431AB2D4
:1029B0007B681A803B7D1BB21B021AB27B7D1BB267
:1029C00013431AB23B681A80FB7D18461837BD4680
:1029D00080BD00BFB4C1000870C600085CC100081B
:1029E000C0C10008CCC1000880B485B000AF7860D9
:1029F0007B6801229A747B689B7CFB737B68002256
:102A00009A74FB7B18461437BD465DF8047B70470B
:102A100080B483B000AF78607B6801229A7400BFF5
:102A20000C37BD465DF8047B704780B584B000AFBD
:102A3000F860084611461A4603467B810B463B81E7
:102A40001346FB80B7F90A201346DB079B1A5B008D
:102A50001B12DBB21A461321F868FFF7E9FD7B89E8
:102A6000DBB21A46D201D31A5B00DBB21A4614213C
:102A7000F868FFF7DDFDB7F908201346DB079B1A5E
:102A80005B001B12DBB21A461521F868FFF7D0FD78
:102A90003B89DBB21A46D201D31A5B00DBB21A467D
:102AA0001621F868FFF7C4FDB7F906201346DB07C7
:102AB0009B1A5B001B12DBB21A461721F868FFF75E
:102AC000B7FDFB88DBB21A46D201D31A5B00DBB23A
:102AD0001A461821F868FFF7ABFD01231846103796
:102AE000BD4680BD80B588B000AF786000237B61B3
:102AF00020E007F10E0307F1100207F112017868D8
:102B0000FFF70CFFFA8BB7F912309BB213449BB25C
:102B1000FB83BA8BB7F910309BB213449BB2BB83D3
:102B20007A8BB7F90E309BB213449BB27B837B69DF
:102B300001337B617B69B3F57A7FDADBB7F91E304D
:102B4000134A82FB03129211DB17D31AFB83B7F9E6
:102B50001C300F4A82FB03129211DB17D31ABB837E
:102B6000B7F91A300A4A82FB03129211DB17D31A03
:102B70007B83B7F91A30B7F91C20B7F91E107868B3
:102B8000FFF753FF034618462037BD4680BD00BF00
:102B9000D34D621080B584B000AFF860084611468E
:102BA0001A4603467B810B463B811346FB80FB683C
:102BB000002B06D11A4B1B4A40F251111A4807F05C
:102BC00049FEB7F90A3007EE903AB8EEE77AFB68AB
:102BD000D3ED057A67EE277ABB69C3ED007AB7F9C2
:102BE000083007EE903AB8EEE77AFB68D3ED057A45
:102BF00067EE277AFB69C3ED007AB7F9063007EE76
:102C0000903AB8EEE77AFB68D3ED057A67EE277A5B
:102C10003B6AC3ED007A00BF1037BD4680BD00BFE0
:102C200058C1000888C600085CC1000880B485B09F
:102C300000AFF860084611461A4603467B810B46F2
:102C40003B811346FB80B7F90A3007EE903AB8EEA5
:102C5000E77AFB68D3ED067A67EE277ABB69C3EDA6
:102C6000007AB7F9083007EE903AB8EEE77AFB68D9
:102C7000D3ED067A67EE277AFB69C3ED007AB7F9E0
:102C8000063007EE903AB8EEE77AFB68D3ED067AA5
:102C900067EE277A3B6AC3ED007A00BF1437BD4662
:102CA0005DF8047B704780B485B000AFF860B96010
:102CB0007A603B60FA68BB68D31AB9693A688A1AC5
:102CC00003FB02F27968BB68CB1AB2FBF3F23B68F4
:102CD000134418461437BD465DF8047B7047000066
:102CE00080B586B000AFF860B9607A603B60FB6881
:102CF000002B05D11A4B1B4A12211B4807F0AAFDD5
:102D0000BB68002B05D1194B164A1321164807F052
:102D1000A1FDFB68BA681A60FB687A685A60FB68B4
:102D20003A689A60FB683A6ADA60FB687A6A1A6104
:102D3000FB68BA6A5A61FB681A68FB685B681946E7
:102D4000104606F07BFA0346FB75FB7D002B01D095
:102D5000002300E0012318461837BD4680BD00BFA0
:102D6000FCC100089CC6000804C2000824C2000878
:102D700080B586B002AF786039607B68002B05D1E2
:102D80001D4B1E4A28211E4807F064FD7B68996888
:102D90007B68DA687B6818697B685B690093034627
:102DA0003868FFF780FFF8607B685B68002B05D10F
:102DB0007B681B681B68FA685A6318E07B685B686D
:102DC000042B05D17B681B681A68FB6893630EE0CF
:102DD0007B685B68082B05D17B681B681A68FB68F9
:102DE000D36304E07B681B681A68FB6813640123E3
:102DF00018461037BD4680BDFCC10008A8C60008B3
:102E000004C2000880B483B000AF786087ED000A88
:102E10007B683A681A607B684FF07E525A617B6823
:102E20004FF000029A617B684FF00002DA617B6824
:102E30004FF000021A627B6800225A6000BF0C3714
:102E4000BD465DF8047B704780B5A2B000AFF86165
:102E500087ED060AC7ED050A87ED041AC7ED031AC8
:102E600087ED022AC7ED012A03F0B0FB7867FB6902
:102E70005B68002B04D1FB697A6F5A60002341E341
:102E8000FB695B687A6FD31A07EE903AB8EE677AFF
:102E9000DFED256AC7EE267AC7ED1C7AD7ED1C7ADE
:102EA000F5EEC07AF1EE10FA01D800232AE3FB69AF
:102EB0007A6F5A60D7ED037A9FED1C7A67EE877AB6
:102EC000C7ED037AD7ED027A9FED187A67EE877A1D
:102ED000C7ED027AD7ED017A9FED147A67EE877A13
:102EE000C7ED017AD7ED067A27EEA77AD7ED057AF6
:102EF00067EEA77A37EE277AD7ED047A67EEA77ADE
:102F000077EE277AB0EE670A08F0A6FC87ED1B0A79
:102F1000D7ED1B7A9FED067AF4EEC77AF1EE10FA40
:102F200008D50023EEE200BF00007A4435FA8E3C5B
:102F300017B7D138D7ED066A97ED1B7AC6EE877AB8
:102F4000C7ED067AD7ED056A97ED1B7AC6EE877A4C
:102F5000C7ED057AD7ED046A97ED1B7AC6EE877A3E
:102F6000C7ED047AFB695B69BB66FB699B697B669D
:102F7000FB69DB693B66FB691B6AFB65D7ED1A7A67
:102F800077EEA77AC7ED167AD7ED197A77EEA77A9A
:102F9000C7ED157AD7ED187A77EEA77AC7ED147AD0
:102FA000D7ED177A77EEA77AC7ED137AD7ED197AAE
:102FB000B1EE007A67EE877AC7ED127AD7ED187A0C
:102FC000B1EE007A67EE877AC7ED117A97ED157A40
:102FD000D7ED177A27EE277AD7ED166AD7ED187A4C
:102FE00066EEA77A37EE677AD7ED067A77EE677ADC
:102FF000C7ED107A97ED167AD7ED197A27EE277A72
:10300000D7ED146AD7ED177A66EEA77A37EE277AEE
:10301000D7ED057A77EE677AC7ED0F7A97ED157AD7
:10302000D7ED197A67EE277AB7EE007A37EE677A2E
:10303000D7ED146AD7ED187A66EEA77A37EE677A7D
:10304000D7ED047A77EE677AC7ED0E7AD7ED147A6A
:10305000B1EE677AD7ED107A27EE277AD7ED156AA9
:10306000D7ED0F7A66EEA77A77EE277AC7ED217A49
:1030700097ED137AD7ED107A27EE277AD7ED166AF7
:10308000D7ED0F7A66EEA77A37EE277AD7ED126A78
:10309000D7ED0E7A66EEA77A77EE677AC7ED207ADB
:1030A000D7ED167AB1EE677AD7ED107A27EE277A48
:1030B000D7ED136AD7ED0F7A66EEA77A37EE277A47
:1030C000D7ED116AD7ED0E7A66EEA77A77EE677ABA
:1030D000C7ED1F7A97ED157AD7ED107A27EE277A8C
:1030E000D7ED146AD7ED0F7A66EEA77A77EE277AD6
:1030F000C7ED1E7AD7ED217A27EEA77AD7ED207A91
:1031000067EEA77A37EE277AD7ED1F7A67EEA77AB0
:1031100037EE277AD7ED1E7A67EEA77A77EE277A11
:10312000B0EE670A08F098FB87ED1B0AD7ED1B7A13
:103130001FED817AF4EEC77AF1EE10FA1FDDD7EDBC
:10314000216A97ED1B7AC6EE877AC7ED217AD7ED13
:10315000206A97ED1B7AC6EE877AC7ED207AD7ED05
:103160001F6A97ED1B7AC6EE877AC7ED1F7AD7EDF7
:103170001E6A97ED1B7AC6EE877AC7ED1E7AD7EDE9
:10318000197AB1EE677AD7ED037A27EE277AD7ED71
:10319000186AD7ED027A66EEA77A37EE677AD7ED2E
:1031A000176AD7ED017A66EEA77A77EE677AB6EE00
:1031B000007A27EE877AFB69D3ED006AD7ED217A92
:1031C00066EEA77A77EE677AC7ED0D7A97ED1A7AF1
:1031D000D7ED037A27EE277AD7ED186AD7ED017A73
:1031E00066EEA77A37EE277AD7ED176AD7ED027A1F
:1031F00066EEA77A77EE677AB6EE007A27EE877AE0
:10320000FB69D3ED006AD7ED207A66EEA77A77EEF8
:10321000677AC7ED0C7A97ED1A7AD7ED027A27EE26
:10322000277AD7ED196AD7ED017A66EEA77A37EEDD
:10323000677AD7ED176AD7ED037A66EEA77A77EE4D
:10324000277AB6EE007A27EE877AFB69D3ED006A1B
:10325000D7ED1F7A66EEA77A77EE677AC7ED0B7A1D
:1032600097ED1A7AD7ED017A27EE277AD7ED196A0A
:10327000D7ED027A66EEA77A37EE277AD7ED186A8D
:10328000D7ED037A66EEA77A77EE677AB6EE007A24
:1032900027EE877AFB69D3ED006AD7ED1E7A66EEDA
:1032A000A77A77EE677AC7ED0A7AFB6993ED057A1C
:1032B000D7ED0D6AD7ED1C7A66EEA77A77EE277AFE
:1032C000FB69C3ED057AFB6993ED067AD7ED0C6ACD
:1032D000D7ED1C7A66EEA77A77EE277AFB69C3ED05
:1032E000067AFB6993ED077AD7ED0B6AD7ED1C7A66
:1032F00066EEA77A77EE277AFB69C3ED077AFB695A
:1033000093ED087AD7ED0A6AD7ED1C7A66EEA77AB4
:1033100077EE277AFB69C3ED087AFB6993ED057AAE
:10332000FB69D3ED057A27EE277AFB69D3ED066AB0
:10333000FB69D3ED067A66EEA77A37EE277AFB694A
:10334000D3ED076AFB69D3ED077A66EEA77A37EE0D
:10335000277AFB69D3ED086AFB69D3ED087A66EE3C
:10336000A77A77EE277AB0EE670A08F075FA87ED4C
:103370001B0AFB69D3ED056A97ED1B7AC6EE877AC7
:10338000FB69C3ED057AFB69D3ED066A97ED1B7AFD
:10339000C6EE877AFB69C3ED067AFB69D3ED076A4F
:1033A00097ED1B7AC6EE877AFB69C3ED077AFB6956
:1033B000D3ED086A97ED1B7AC6EE877AFB69C3EDF9
:1033C000087AFB695B69BB66FB699B697B66FB6985
:1033D000DB693B66FB691B6AFB6597ED1A7AD7EDE3
:1033E000197A27EE277AD7ED186AD7ED177A66EEA5
:1033F000A77A77EE277A77EEA76AD7ED197A27EEC4
:10340000A77AD7ED187A67EEA77A77EE277A77EE64
:10341000A77AB7EE007A77EE677AF0EE670AB0EE39
:10342000660A08F017FAF0EE407A9FED387A67EEF8
:10343000877AFB69C3ED037A97ED1A7AD7ED187A8C
:1034400027EE277AD7ED176AD7ED197A66EEA77AB5
:1034500077EE677A77EEA77AC7ED097AD7ED097A22
:10346000F0EEE77AB7EE007AF4EEC77AF1EE10FAF2
:103470000BDBD7ED090A9FED260A07F0CEFBF0EE35
:10348000407AFB69C3ED027A0CE097ED090A08F077
:10349000B5F9F0EE407A9FED1D7A67EE877AFB6909
:1034A000C3ED027A97ED1A7AD7ED177A27EE277ACD
:1034B000D7ED196AD7ED187A66EEA77A77EE277AF4
:1034C00077EEA76AD7ED187A27EEA77AD7ED177AA5
:1034D00067EEA77A77EE277A77EEA77AB7EE007ACB
:1034E00077EE677AF0EE670AB0EE660A08F0B2F996
:1034F000F0EE407A9FED057A67EE877AFB69C3EDBF
:10350000047A012318468837BD4680BDE02E654207
:103510000000B44280B582B000AF78607B68002BB9
:1035200005D1064B064ABA21064807F093F97B6895
:103530005B7818460837BD4680BD00BF2CC2000826
:1035400010C7000834C2000880B582B000AF7860B0
:103550007B68002B05D1084B084AC121084807F0B9
:1035600079F97868FFF7D6FF0346023BDBB21846CD
:103570000837BD4680BD00BF2CC20008F8C6000851
:1035800034C2000880B582B000AF78607B68002B41
:1035900005D1064B064AC821064807F05BF97B684F
:1035A0009B7818460837BD4680BD00BF2CC2000876
:1035B00074C7000834C2000880B582B000AF7860DC
:1035C0007B68002B05D1084B084AE021084807F02A
:1035D00041F97868FFF79EFF03460233DBB21846D5
:1035E0000837BD4680BD00BF2CC200085CC700087C
:1035F00034C2000880B483B000AF78600B467B8093
:103600007B881B0A9BB2DAB27B681A707B68013335
:103610007A88D2B21A7000BF0C37BD465DF8047BC1
:10362000704780B483B000AF786039603B681B1688
:10363000DAB27B681A703B681A147B680133D2B225
:103640001A703B681A127B680233D2B21A707B6818
:1036500003333A68D2B21A7000BF0C37BD465DF82A
:10366000047B704780B582B000AF78600B46FB707A
:103670007B68002B05D1064B064A3A21064807F025
:10368000E9F87B68FA781A7000BF0837BD4680BD3C
:103690002CC20008B4C6000858C2000880B582B029
:1036A00000AF78600B46FB707B68002B05D1064BA2
:1036B000064A4121064807F0CDF87B68FA785A702F
:1036C00000BF0837BD4680BD2CC20008C4C6000834
:1036D00058C2000880B582B000AF78600B46FB701E
:1036E0007B68002B05D1064B064A4821064807F0A7
:1036F000B1F87B68FA789A7000BF0837BD4680BD84
:103700002CC20008D4C6000858C2000880B584B096
:1037100000AF786039607B68002B05D1104B114AEF
:103720004F21114807F096F80023FB730AE0FB7B5A
:103730003A681A44FB7B033311787A68D154FB7BD7
:103740000133FB737868FFF7FFFE03461A46FB7BE5
:103750009342ECD300BF00BF1037BD4680BD00BF11
:103760002CC20008E4C6000858C2000880B582B028
:1037700000AF78600B46FB707B68002B05D1094BCE
:10378000094A5821094807F065F87868FFF7C2FE32
:10379000034601337A68F978D15400BF0837BD4633
:1037A00080BD00BF2CC2000820C7000858C2000816
:1037B00080B485B000AF03460A46FB711346BB7167
:1037C000FA79BB795340FB710023FB6013E097F952
:1037D0000730002B09DA97F907305B005BB283F002
:1037E0002A03DB435BB2FB7102E0FB795B00FB71F8
:1037F000FB680133FB60FB68072BE8DDFB791846AB
:103800001437BD465DF8047B7047000080B584B076
:1038100000AF78600B46FB707B68002B05D1114B25
:10382000114A6E21114807F015F80023FB7302239B
:10383000BB730DE0BB7B7A6813441A78FB7B11469F
:103840001846FFF7B5FF0346FB73BB7B0133BB7321
:10385000BA7BFB78013B9A42ECDBFB7B18461037C6
:10386000BD4680BD7CC2000830C7000858C20008B1
:1038700080B584B000AF78607B68002B05D1124B17
:10388000124A7A21124806F0E5FF0023FB73022357
:10389000BB730CE0BB7B7A68D25CFB7B114618469D
:1038A000FFF786FF0346FB73BB7B0133BB7378686E
:1038B000FFF730FE03461A46BB7B9342EAD9FB7BF7
:1038C00018461037BD4680BD2CC2000844C700080A
:1038D00058C200082DE9B04F88B000AFF860B96059
:1038E000C7E90023D7E90023042A73F1000306D2B5
:1038F000396CD7E90023C1E9002300237DE0BB68D0
:103900001B78C82B08D0396C4FF001024FF0000330
:10391000C1E90023002370E0BB681B781946F868F2
:10392000FFF7A0FEBB6801331B78012B08D8396C68
:103930004FF002024FF00003C1E9002300235CE0D6
:10394000BB6801331B780233DA171C461546D7E9EA
:103950000023A242AB4104D3BB6801331B783E2B4A
:1039600006D9396CD7E90023C1E90023002344E0DC
:10397000BB6801331B781946F868FFF78FFEBB68F8
:1039800002331B781946F868FFF7A4FEF868FFF7C2
:10399000C1FD0346DBB200229A469346C7E906AB57
:1039A0003B7E0133FB75F868FFF706FE03461946B8
:1039B000B868FFF72BFF0346BB75F868FFF7FCFDFF
:1039C0000346DBB20022984691463B6CC3E900896E
:1039D000FB7DBA6813441B78BA7D9A4201D000235C
:1039E0000BE0BB7D1946F868FFF7C0FEBB680333E8
:1039F0001946F868FFF78AFE012318462037BD46AE
:103A0000BDE8B08FB0B584B000AF786039607B6836
:103A1000002B06D11C4B1D4A4FF48A711C4806F03E
:103A200019FF3B68002B06D11A4B184A40F21511BA
:103A3000174806F00FFF7868FFF7A4FD0346162B22
:103A400001D000231BE07868FFF77EFD0346162BAC
:103A500001D0002313E07B680333FB60FB68BB608D
:103A60003B68BA68116855689468D06819605D60F1
:103A70009C60D86011691961928A9A820123184664
:103A80001037BD46B0BD00BF2CC2000884C7000877
:103A900058C20008A4C2000880B586B000AFF86024
:103AA000B9607A607B80FB68002B06D1244B254AE5
:103AB0004FF4CC71244806F0CDFEC821F868FFF71A
:103AC000D1FD1121F868FFF7E9FD0221F868FFF741
:103AD00001FEFB6803337B61B9687869FFF7A1FDDC
:103AE0007B69043379681846FFF79BFD7B690833CF
:103AF0007A8811461846FFF77DFD7B690A333A8CB8
:103B000011461846FFF776FD7B6903F10C02BB8C6A
:103B100003F57A739BB219461046FFF76BFD7B697C
:103B20000E3397F828201A70F868FFF7A1FE0346B5
:103B30001946F868FFF71AFE00BF1837BD4680BD6A
:103B40002CC200089CC7000858C2000880B586B087
:103B500000AFF860084611461A460346FB720B4652
:103B60003B811346FB80FB68002B06D1354B364A60
:103B70004FF4D771354806F06DFEC821F868FFF79D
:103B800071FD1621F868FFF789FD0621F868FFF737
:103B9000A1FDFB6803337B617B69FA7A1A707B694C
:103BA00001333A8911461846FFF724FD7B69033338
:103BB000FA8811461846FFF71DFD7B6905333A8CDC
:103BC00011461846FFF716FD7B690733BA8C11467C
:103BD0001846FFF70FFD7B6909333A8D11461846E9
:103BE000FFF708FD7B690B33BA8D11461846FFF7C6
:103BF00001FD7B690D333A8E11461846FFF7FAFC3A
:103C00007B690F33BA8E11461846FFF7F3FC7B69C8
:103C1000113300221A707B69123397F838201A701A
:103C20007B69133397F83C201A70F868FFF720FE81
:103C300003461946F868FFF799FD00BF1837BD46DF
:103C400080BD00BF2CC20008B0C7000858C20008E1
:103C500080B584B000AF7860084611461A46034626
:103C60007B800B467B7013463B707B68002B06D134
:103C7000224B234A4FF4E471224806F0EBFDC821A1
:103C80007868FFF7EFFC0B217868FFF707FD032149
:103C90007868FFF71FFD7B680333FB607B8819465C
:103CA000F868FFF7A7FCFB6802337A781A70FB68A4
:103CB00003333A781A70FB6804333A7E1A70FB6853
:103CC00005333A7F1A70FB68063397F820201A7084
:103CD000FB68073397F8242092B211461846FFF785
:103CE00089FC7868FFF7C4FD034619467868FFF73A
:103CF0003DFD00BF1037BD4680BD00BF2CC200088F
:103D0000C4C7000858C2000880B586B000AFF8608C
:103D1000084611461A4603467B810B463B811346F3
:103D2000FB80FB68002B06D11A4B1B4A4FF4EF7146
:103D30001A4806F08FFDC821F868FFF793FC0821A8
:103D4000F868FFF7ABFC1E21F868FFF7C3FCFB68BF
:103D500003337B617B8919467869FFF74BFC7B69EC
:103D600002333A8911461846FFF744FC7B69043355
:103D7000FA8811461846FFF73DFCF868FFF778FD12
:103D800003461946F868FFF7F1FC00BF1837BD4637
:103D900080BD00BF2CC20008DCC7000858C2000864
:103DA00080B586B000AFF8607A601A460B46FB72A9
:103DB0001346BB72FB68002B06D12A4B2A4A40F2FD
:103DC00021212A4806F046FD7B68002B06D1284BAE
:103DD000254A40F22221254806F03CFDBB7A1D2BE6
:103DE00006D9244B204A40F22321204806F032FD18
:103DF000C821F868FFF736FCBB7A5B00DBB20333FF
:103E0000DBB21946F868FFF749FC0E21F868FFF7A6
:103E100061FCFB6803333B613B69FA7A1A7000234B
:103E2000FB750FE0FB7D5B0001333A69D018FB7D29
:103E30005B007A6813441B881946FFF7DBFBFB7DA8
:103E40000133FB75FA7DBB7A9A42EBD3F868FFF732
:103E50000FFD03461946F868FFF788FC00BF1837C6
:103E6000BD4680BD2CC20008F4C7000858C2000837
:103E7000E0C20008ECC2000880B586B000AFF86070
:103E8000084611461A4603467B810B463B81134682
:103E9000FB80FB68002B06D11A4B1B4A40F24B21DA
:103EA0001A4806F0D7FCC821F868FFF7DBFB0821A9
:103EB000F868FFF7F3FB3021F868FFF70BFCFB68AD
:103EC00003337B617B8919467869FFF793FB7B6934
:103ED00002333A8911461846FFF78CFB7B6904339D
:103EE000FA8811461846FFF785FBF868FFF7C0FC13
:103EF00003461946F868FFF739FC00BF1837BD467E
:103F000080BD00BF2CC200080CC8000858C20008C1
:103F100080B586B000AFF860084611461A460346E1
:103F20007B810B463B811346FB80FB68002B06D14F
:103F30001A4B1B4A40F25E211A4806F08BFCC8213E
:103F4000F868FFF78FFB0821F868FFF7A7FB31211E
:103F5000F868FFF7BFFBFB6803337B617B89194679
:103F60007869FFF747FB7B6902333A8911461846A7
:103F7000FFF740FB7B690433FA8811461846FFF7C8
:103F800039FBF868FFF774FC03461946F868FFF739
:103F9000EDFB00BF1837BD4680BD00BF2CC2000836
:103FA00020C8000858C2000880B483B000AF786011
:103FB0007B6803F5436319464FF000024FF000039E
:103FC00041E902237B6803F5426319464FF0000282
:103FD0004FF00003C1E90023012318460C37BD460A
:103FE0005DF8047B704700002DE9F04F87B000AF0B
:103FF000F860B960FB68002B05D14A4B4A4A1A2188
:104000004A4806F027FCFB6803F5436353E90223A3
:10401000332A73F1000305D3454B434A1B21434820
:1040200006F018FCFB6803F5436353E90223A2F191
:1040300032010B4324D1FB6803F54263D3E900232B
:10404000511C396043F100037B604FF032024FF0A6
:104050000003D7E90001FCF751FDF96801F5426161
:10406000C1E90023FB6803F5436353E9022312F11E
:10407000FF3843F1FF39FB6803F5436343E90289E5
:10408000FE68FB6803F54263D3E90001FB6803F5B2
:10409000436353E9022310EB020A41EB030B4FF099
:1040A00032024FF0000350465946FCF727FD1346F5
:1040B0005B019B1A5B0033447B617A69BB681046E5
:1040C00003F1300602461946D1F80080D1F804E029
:1040D000D1F808C0C968C2F80080C2F804E0C2F88C
:1040E00008C0D16010331030B342EBD102461E68D5
:1040F000586899681660506091609B899381FB684D
:1041000003F5436353E90223541C43F10005FB68A4
:1041100003F5436343E90245012318461C37BD46B6
:10412000BDE8F08F40C3000834C8000848C3000849
:104130007CC300082DE9F04784B000AF7860396097
:104140007B68002B05D1374B374A2B21374806F0C7
:1041500081FB3B68002B05D1354B334A2C2133487A
:1041600006F078FB7B6803F5436353E902231343AE
:1041700001D1002351E07B6803F54263D3E90023BA
:1041800013465B019B1A5B007A681344FB603A6834
:10419000FB68104603F1300602461946D1F800A02C
:1041A000D1F804E0D1F808C0C968C2F800A0C2F88C
:1041B00004E0C2F808C0D16010331030B342EBD134
:1041C00002461E68586899681660506091609B8925
:1041D00093817B6803F5436353E90223541E43F143
:1041E000FF357B6803F5436343E902457B6803F5CC
:1041F0004263D3E9002312F1010843F100094FF0B3
:1042000032024FF0000340464946FCF777FC7968DC
:1042100001F54261C1E90023012318461037BD466C
:10422000BDE8F08740C300084CC8000848C3000838
:10423000A0C300082DE9F0439BB002AFF860B9605D
:10424000C7E90023FB68002B05D1334B334A4621D5
:10425000334806F0FFFABB68002B05D1314B2F4ADB
:1042600047212F4806F0F6FAD7F88030002B05D109
:104270002D4B2A4A48212A4806F0ECFA4FF000025A
:104280004FF00003C7E9162330E0BB6DBA68D618BB
:10429000D7E90001D7E91623B0EB020861EB030967
:1042A00007F1180007F11003009342464B463146D0
:1042B000FFF710FB034687F85730D7E90423D7E907
:1042C0001601841841EB0305C7E9164597F85730E6
:1042D000002B0BD007F118031946F868FFF784FE8E
:1042E000034683F00103DBB2002B08D1D7E91601A6
:1042F000D7E90023904271EB0303C6D300E000BF6F
:10430000D7F88010D7E91623C1E9002300BF64372E
:10431000BD46BDE8F08300BF40C3000864C8000884
:1043200048C30008A8C30008ACC3000880B582B029
:1043300000AF78607B68002B05D1064B064A7F21D1
:10434000064806F087FA7B689B7818460837BD4612
:1043500080BD00BFB8C300083CC90008C0C3000846
:1043600080B582B000AF78607B68002B05D1064B2A
:10437000064A8521064806F06DFA7B68DB78184608
:104380000837BD4680BD00BFB8C300084CC900084F
:10439000C0C3000880B584B000AF78607B68002B94
:1043A00005D1084B084A8B21084806F053FA7B6870
:1043B0000433FB60FB681B887B817B8918461037C0
:1043C000BD4680BDB8C30008D0C80008C0C30008FF
:1043D00080B582B000AF78607B68002B05D1084BB8
:1043E000084AAB21084806F035FA7868FFF7D2FF93
:1043F000034608339BB218460837BD4680BD00BF50
:10440000B8C3000824C90008C0C3000880B485B040
:1044100000AFF860B9601346FB71FB681A78FB794E
:104420001344DAB2FB681A70BB681A78FB681B7811
:104430001344DAB2BB681A7000BF1437BD465DF88A
:10444000047B704780B582B000AF78600B46FB708C
:104450007B68002B05D1064B064A2221064806F050
:10446000F9F97B68FA781A7000BF0837BD4680BD3D
:10447000B8C3000878C80008E0C3000880B582B05F
:1044800000AF78600B46FB707B68002B05D1064BB4
:10449000064A2A21064806F0DDF97B68FA785A7048
:1044A00000BF0837BD4680BDB8C3000888C80008F3
:1044B000E0C3000880B582B000AF78600B46FB70A7
:1044C0007B68002B05D1064B064A3221064806F0D0
:1044D000C1F97B68FA789A7000BF0837BD4680BD85
:1044E000B8C3000898C80008E0C3000880B582B0CF
:1044F00000AF78600B46FB707B68002B05D1064B44
:10450000064A3921064806F0A5F97B68FA78DA7080
:1045100000BF0837BD4680BDB8C30008A8C8000862
:10452000E0C3000880B584B000AF78600B467B80A4
:104530007B68002B05D1084B084A4121084806F04A
:1045400089F97B680433FB60FB687A881A8000BFB6
:104550001037BD4680BD00BFB8C30008B4C800080E
:10456000E0C3000880B586B000AFF860B9601346BC
:10457000FB80FB68002B05D1104B114A49211148E3
:1045800006F068F90023FB820AE0FB8ABA681A4445
:10459000FB8A06331178FA68D154FB8A0133FB8217
:1045A000F868FFF7F7FE03461A46FB8A9342ECD3FE
:1045B00000BF00BF1837BD4680BD00BFB8C30008AC
:1045C000C0C80008E0C3000880B582B000AF7860C2
:1045D0000B46FB707B68002B05D1094B094A522121
:1045E000094806F037F97868FFF7D4FE034606332A
:1045F0007A68F978D15400BF0837BD4680BD00BF46
:10460000B8C30008DCC80008E0C3000880B582B069
:1046100000AF78600B46FB707B68002B05D1094B1F
:10462000094A5821094806F015F97868FFF7B2FEE3
:10463000034607337A68F978D15400BF0837BD467E
:1046400080BD00BFB8C30008ECC80008E0C3000884
:1046500080B586B000AFF8607A603B600B467B8126
:10466000FB68002B05D11B4B1B4A60211B4806F041
:10467000F1F87B68002B05D1194B174A61211748C7
:1046800006F0E8F83B68002B05D1164B124A622170
:10469000124806F0DFF87B6800221A703B6800229F
:1046A0001A700223FB820BE0FB8AFA6813441B7822
:1046B0001A4639687868FFF7A9FEFB8A0133FB8246
:1046C000FA8A7B89023B9A42EEDB00BF00BF1837B3
:1046D000BD4680BD00C40008FCC80008E0C3000857
:1046E00004C400080CC4000880B586B000AFF860B0
:1046F000B9603B601346FB80FB68002B05D14C4B37
:104700004C4A80214C4806F0A5F8BB68002B05D127
:104710004A4B484A8121484806F09CF8FB88072B01
:1047200004D83B68FA881A8000237CE0BB681B78B9
:10473000B52B04D03B6801221A80002373E0BB68CC
:1047400001331B78622B04D03B6802221A800023BD
:1047500069E0BB681B781946F868FFF773FEBB6811
:1047600001331B781946F868FFF788FEBB680233EF
:104770001B781946F868FFF79DFEBB6803331B786A
:104780001946F868FFF7B2FEBB6804337B617B69AA
:104790001B88DA1DFB889A4203DA7B691B88A42BED
:1047A00004D93B68FA881A8000233CE07B691B88A7
:1047B0001946F868FFF7B6FE0023FB740023BB74AC
:1047C000F868FFF705FE0346194607F1120307F1E3
:1047D0001302B868FFF73CFF7B691B880633BA6891
:1047E00013441A78FB7C9A4208D17B691B880733F3
:1047F000BA6813441A78BB7C9A4201D0002312E0B5
:10480000FB7C1946F868FFF7DFFEBB7C1946F868A9
:10481000FFF7FCFEBB68991D7B691B881A46F86888
:10482000FFF7A0FE012318461837BD4680BD00BF24
:10483000B8C3000814C90008E0C3000800C4000899
:1048400080B584B000AF786039607B68002B05D1FB
:104850006B4B6C4ACC216C4805F0FCFF3B68002B8D
:1048600005D16A4B674ACD21674805F0F3FF7868A8
:10487000FFF75CFD0346012B05D17868FFF770FD5B
:104880000346072B01D00023B5E07868FFF782FDCF
:1048900003465C2B01D00023ADE07B680633FB6050
:1048A000FB681A683B681A60FB689A883B689A80C4
:1048B000FB6806331A783B689A71FB680C331A78E8
:1048C0003B68DA71FB6808331A783B681A72FB6838
:1048D00009331A783B685A72FB680A331A783B68C6
:1048E0009A72FB680B331A783B68DA72FB68DA68F5
:1048F0003B68DA60FB681A693B681A61FB6814332D
:104900001A783B681A75FB6815331A783B685A7534
:10491000FB6816331A783B689A75FB6817331A7868
:104920003B68DA75FB689A693B689A61FB68DA69EB
:104930003B68DA61FB681A6A3B681A62FB685A6A6C
:104940003B685A62FB689A6A3B689A62FB68DA6A5B
:104950003B68DA62FB681A6B3B681A63FB685A6B48
:104960003B685A63FB689A6B3B689A63FB68DA6B37
:104970003B68DA63FB681A6C3B681A64FB685A6C24
:104980003B685A64FB689A6C3B689A64FB68B3F8AE
:104990004C203B68A3F84C20FB68B3F84E203B68E2
:1049A000A3F84E20FB6850331A783B6883F85020F8
:1049B000FB6851331A783B6883F85120FB68523307
:1049C0001A783B6883F85220FB6853331A783B68A7
:1049D00083F85320FB685A6D3B685A65FB68B3F94E
:1049E00058203B68A3F85820FB68B3F85A203B686E
:1049F000A3F85A20012318461037BD4680BD00BFDA
:104A0000B8C3000858C90008E0C3000820C4000863
:104A100080B582B000AF78607B68002B05D1094B70
:104A2000094A0D21094805F015FF7B68002283F82B
:104A3000C8207B68002283F8C92001231846083764
:104A4000BD4680BD28C400086CC9000830C40008F9
:104A500080B584B000AF786039607B68002B05D1E9
:104A60001E4B1F4A17211F4805F0F4FE7B6893F880
:104A7000C930022B05D91C4B194A1821194805F0D9
:104A8000E9FE7B6893F8C930022B01D1002320E0B6
:104A90007A687B6893F8C8107B6893F8C9300B4438
:104AA000DBB203F00103642101FB03F31344FB6059
:104AB000FA683B681046194664231A4606F09FF8C8
:104AC0007B6893F8C9300133DAB27B6883F8C92078
:104AD000012318461037BD4680BD00BF28C400081A
:104AE00084C9000830C4000864C4000880B584B0DC
:104AF00000AF786039607B68002B05D1204B214ADC
:104B00002721214805F0A6FE3B68002B05D11F4B4D
:104B10001C4A28211C4805F09DFE7B6893F8C9308B
:104B2000002B01D1002327E07B6893F8C8301A4698
:104B3000642302FB03F37A681344FB603A68FB6862
:104B40001046194664231A4606F059F87B6893F814
:104B5000C930013BDAB27B6883F8C9207B6893F8DF
:104B6000C8300133002B03F00103B8BF5B42DAB257
:104B70007B6883F8C820012318461037BD4680BDE6
:104B800028C400089CC9000830C4000884C4000878
:104B900080B5A0B000AFF860B9603B601346FB8001
:104BA000FB68002B05D1294B294A4221294805F0F1
:104BB00051FEBB68002B05D1274B254A43212548D0
:104BC00005F048FE3B68002B05D1244B204A4421C8
:104BD000204805F03FFE0023A7F87E3027E0B7F815
:104BE0007E30BA68D118FA88B7F87E30D31A9AB2F4
:104BF00007F1160307F11800FFF776FD034687F863
:104C00007D30FA8AB7F87E301344A7F87E3097F8E3
:104C10007D30002B0BD007F118031946F868FFF719
:104C200017FF034683F00103DBB2002B05D1B7F871
:104C30007E20FB889A42D2D300E000BF3B68B7F8E1
:104C40007E201A8000BF8037BD4680BD28C4000882
:104C5000B0C9000830C400088CC4000890C4000823
:104C600080B582B000AF05F067FDFCF7F3F80346AE
:104C700083F00103DBB2002B02D04FF0FF3308E0DA
:104C800000237B607B6801337B60FCF71AF900BF6F
:104C9000F8E718460837BD4680BD000080B483B0F1
:104CA00000AF78600B46FB707A6813465B019A1A76
:104CB000FB781A44064BA3FB02131B09322101FBAC
:104CC00003F3D31A18460C37BD465DF8047B7047D2
:104CD0001F85EB5180B584B000AF78600B46FB7048
:104CE0007B68002B05D1144B144A2821144805F089
:104CF000B1FDFB78142B05D9124B104A292110481D
:104D000005F0A8FDD223FB600023FB720BE0FB7AC9
:104D10007A6813441B781946F868FFF7BFFFF860FC
:104D2000FB7A0133FB72FA7AFB789A42EFD3FB6885
:104D300018461037BD4680BD9CC40008C4C9000891
:104D4000A8C40008CCC4000880B588B000AFF860E3
:104D50000B467A60FB72FB68002B05D1304B314A61
:104D60003521314805F076FDFB7A142B05D92F4B00
:104D70002C4A36212C4805F06DFD7B68002B05D1AF
:104D80002B4B284A3721284805F064FD294B1B6826
:104D9000002B01D100233EE0FB7A1946F868FFF7AB
:104DA00099FF0346FB6100237B610023BB612EE07A
:104DB000FB69682202FB03F31F4A13447B617B6992
:104DC0001B78002B13D07B695B7DFA7A9A420ED157
:104DD0007B690133FA7A1946F86805F078FE0346D4
:104DE000002B04D1FA697B681A60012313E0FB6988
:104DF0000133124A82FB03121111DA178A1A322187
:104E000001FB02F29B1AFB61BB690133BB61BB6909
:104E1000312BCDD9002318462037BD4680BD00BFB9
:104E20009CC40008D8C90008A8C40008CCC4000865
:104E3000F4C40008883C0020382800201F85EB516E
:104E400080B586B000AFF8600B467A60FB727B6875
:104E5000002B05D11F4B204A5021204805F0FAFCB9
:104E60001F4B1B68322B01D100232EE0FB7A194621
:104E7000F868FFF72FFF03467B6100233B6120E0CA
:104E8000184A7B69682101FB03F313441B7883F004
:104E90000103DBB2002B04D07A697B681A6001231E
:104EA00013E07B690133104A82FB03121111DA17F8
:104EB0008A1A322101FB02F29B1A7B613B690133A2
:104EC0003B613B69312BDBD9002318461837BD46BF
:104ED00080BD00BFF4C40008E8C90008A8C40008E9
:104EE000883C0020382800201F85EB5180B586B013
:104EF00000AFF8600B467A60FB72FB68002B05D1AF
:104F00002B4B2C4A65212C4805F0A4FCFB7A142B72
:104F100005D92A4B274A6621274805F09BFC7B6868
:104F2000002B05D1264B234A6721234805F092FC2C
:104F3000FB7A7A681946F868FFF782FF034683F028
:104F40000103DBB2002B01D000232CE07B681B683F
:104F5000682202FB03F31B4A13443B613B690133A4
:104F6000FA7AF968184605F0C4FD3B69FA7A5A7571
:104F70003B6900229A753B6901221A700023FB7578
:104F800008E0FA7D3B690632002143F82210FB7DE0
:104F90000133FB75FB7D132BF3D90B4B1B680133DE
:104FA000094A1360012318461837BD4680BD00BF6B
:104FB0009CC40008FCC90008A8C4000800C500087B
:104FC000F4C4000838280020883C002080B584B054
:104FD00000AFF8600B467A60FB72FB7A7A6819467C
:104FE000F868FFF7B1FE0346002B01D0012306E06D
:104FF000FB7A7A681946F868FFF778FF0346184687
:105000001037BD4680BD000080B588B000AFF860A5
:10501000B9601346FB71FB68312B05D9224B234A3B
:105020009C21234805F016FCBB68002B05D1214BC1
:105030001E4A9D211E4805F00DFCFB79002B01D175
:1050400001232DE0FB68682202FB03F31A4A134494
:10505000BB61BB691B7883F00103DBB2002B01D07D
:1050600000231DE0BB699B7D002B01D1012317E0CC
:10507000BB6918337B610023FB770BE0FB7F9B0050
:105080007A6913441B68FA791146B8689847FB7F20
:105090000133FB77BB699B7DFA7F9A42EED30123F4
:1050A00018462037BD4680BD24C500080CCA00083C
:1050B000A8C400084CC500083828002080B584B07A
:1050C00000AF786039607B68312B05D91B4B1C4AD7
:1050D000B5211C4805F0BEFB3B68002B05D11A4BDF
:1050E000174AB621174805F0B5FB7B68682202FB1A
:1050F00003F3164A1344FB60FB681B7883F001033B
:10510000DBB2002B01D0002314E0FB689B7D142B45
:1051100001D100230EE0FB689B7D1A46FB68063236
:10512000396843F82210FB689B7D0133DAB2FB68D3
:105130009A75012318461037BD4680BD24C5000866
:105140001CCA0008A8C4000850C500083828002060
:1051500080B584B000AF3B4600221A605A609A6066
:10516000DA602F4B2F4A1A602D4B4FF480325A6071
:105170002B4B00229A602A4B01221A61284B0122F4
:105180001A76274B002283F82020254B0022DA6272
:10519000234B254A9A62224B0022DA60204B0322DD
:1051A000DA611F4B012283F830201D4B01225A6126
:1051B0001B4801F03BFA0346002B01D005F044FBED
:1051C00004233B6001237B600723BB603B461946F9
:1051D000134801F081FB0346002B01D005F034FB9E
:1051E00007233B6002237B603B4619460C4801F0D5
:1051F00073FB0346002B01D005F026FB11233B6017
:1052000003237B603B461946054801F065FB0346D6
:10521000002B01D005F018FB00BF1037BD4680BD44
:105220008C3C0020002001400100000F80B58AB0B6
:1052300000AF786007F1140300221A605A609A6088
:10524000DA601A617B681B682F4A934257D10023AA
:105250003B612E4B5B6C2D4A43F4807353642B4BA4
:105260005B6C03F480733B613B690023FB60274B5D
:105270001B6B264A43F001031363244B1B6B03F0A3
:105280000103FB60FB6890237B610323BB61002368
:10529000FB6107F1140319461D4802F04FFA1D4B3C
:1052A0001D4A1A601B4B00225A601A4B00229A605A
:1052B000184B0022DA60174B4FF480621A61154BCD
:1052C0004FF480525A61134B4FF480429A61114B54
:1052D0004FF48072DA610F4B00221A620D4B0022EC
:1052E0005A620C4801F0BAFE0346002B01D005F0CB
:1052F000ABFA7B68074A9A63064A7B68936300BFF0
:105300002837BD4680BD00BF002001400038024064
:1053100000000240D43C00201064024080B582B0FE
:1053200000AF00237B602B4B1B6B2A4A43F4001316
:105330001363284B1B6B03F400137B607B68002313
:105340003B60244B1B6B234A43F480031363214BC4
:105350001B6B03F480033B603B680022002110209C
:1053600001F045FE102001F05EFE00220021112018
:1053700001F03DFE112001F056FE002200213820F0
:1053800001F035FE382001F04EFE002200213920C8
:1053900001F02DFE392001F046FE002200213A20C6
:1053A00001F025FE3A2001F03EFE002200214520BA
:1053B00001F01DFE452001F036FE002200214620AE
:1053C00001F015FE462001F02EFE00BF0837BD4655
:1053D00080BD00BF0038024080B58AB000AF07F141
:1053E000140300221A605A609A60DA601A6100237E
:1053F0003B61514B1B6B504A43F0040313634E4B0C
:105400001B6B03F004033B613B690023FB604A4BC9
:105410001B6B494A43F080031363474B1B6B03F03C
:105420008003FB60FB680023BB60434B1B6B424A5D
:1054300043F001031363404B1B6B03F00103BB609C
:10544000BB6800237B603C4B1B6B3B4A43F0020371
:105450001363394B1B6B03F002037B607B680122F3
:105460004FF40051354802F0EDFA01222221344870
:1054700002F0E8FA012242F20401324802F0E2FAB4
:105480004FF400537B610123BB610023FB610023C8
:105490003B6207F114031946284802F04FF9222312
:1054A0007B610123BB610023FB6102233B6207F1A7
:1054B00014031946224802F041F940237B614FF45E
:1054C0000413BB610023FB6107F1140319461C4858
:1054D00002F034F942F204037B610123BB61002333
:1054E000FB6102233B6207F114031946154802F0E1
:1054F00025F94FF480537B614FF48813BB6100237F
:10550000FB6107F1140319460E4802F017F9002257
:105510000021172001F06BFD172001F084FD00220F
:105520000021282001F063FD282001F07CFD00BF50
:105530002837BD4680BD00BF003802400008024049
:10554000000002400004024080B500AF124B134A35
:105550001A60114B124A5A600F4B00229A600E4B90
:105560000022DA600C4B4FF480421A610A4B002291
:105570005A61094B00229A61074B0022DA61064BFF
:1055800000221A62044802F09BFA0346002B01D065
:1055900005F05AF900BF80BD343D002000540040A2
:1055A000A086010080B58AB000AF786007F11403CF
:1055B00000221A605A609A60DA601A617B681B6880
:1055C000194A93422CD100233B61184B1B6B174A9D
:1055D00043F002031363154B1B6B03F002033B61A3
:1055E0003B694FF440737B611223BB610023FB6175
:1055F00003233B6204237B6207F1140319460C4822
:1056000002F09CF80023FB60084B1B6C074A43F434
:1056100000131364054B1B6C03F40013FB60FB6861
:1056200000BF2837BD4680BD00540040003802400E
:105630000004024080B500AF174B184A1A60164BA1
:105640004FF482725A60144B00229A60124B00226F
:10565000DA60114B02221A610F4B01225A610E4B84
:105660004FF400729A610C4B1022DA610A4B00224F
:105670001A62094B00225A62074B00229A62064BBB
:105680000A22DA62044802F0B7FF0346002B01D079
:1056900005F0DAF800BF80BD883D002000380040EA
:1056A00080B58AB000AF786007F1140300221A6059
:1056B0005A609A60DA601A617B681B68194A9342E3
:1056C0002CD100233B61184B1B6C174A43F48043D9
:1056D0001364154B1B6C03F480433B613B6900234F
:1056E000FB60114B1B6B104A43F0020313630E4B1C
:1056F0001B6B03F00203FB60FB684FF444437B61C8
:105700000223BB610023FB6103233B6205237B6211
:1057100007F114031946054802F010F800BF2837B6
:10572000BD4680BD00380040003802400004024001
:1057300080B483B000AF00237B60104B5B6C0F4ADA
:1057400043F4804353640D4B5B6C03F480437B60F4
:105750007B6800233B60094B1B6C084A43F0805375
:105760001364064B1B6C03F080533B603B6800BF27
:105770000C37BD465DF8047B704700BF003802401F
:1057800080B400AF00BFFDE780B400AF00BFFDE70D
:1057900080B400AF00BFFDE780B400AF00BFFDE7FD
:1057A00080B400AF00BFFDE780B400AF00BFBD46CE
:1057B0005DF8047B704780B400AF00BFBD465DF864
:1057C000047B704780B400AF00BFBD465DF8047B2A
:1057D000704780B500AF00F0E5FE00BF80BD00005F
:1057E00080B500AF024801F03FFD00BF80BD00BFA3
:1057F000FC40002080B500AF024801F035FD00BF3D
:1058000080BD00BF9C40002080B500AF402002F06A
:1058100033F900BF80BD80B500AF4FF4805002F077
:105820002BF9FCF715FC00BF80BD000080B500AF70
:10583000024801F019FD00BF80BD00BFD43C00202C
:1058400080B500AF024801F00FFD00BF80BD00BF72
:105850005C41002080B500AF024801F005FD00BFAB
:1058600080BD00BFDC3F002080B500AF024801F0E2
:10587000FBFC00BF80BD00BFBC41002080B500AF75
:10588000024801F0F1FC00BF80BD00BF3C40002099
:1058900080B400AF01231846BD465DF8047B704715
:1058A00080B582B000AF7860396005F07BF90346BF
:1058B00016221A604FF0FF3318460837BD4680BDE8
:1058C00080B582B000AF78604FF0FF317868FFF7A5
:1058D000E7FF00BFFDE780B586B000AFF860B960B4
:1058E0007A6000237B610AE0AFF300800146BB6869
:1058F0005A1CBA60CAB21A707B6901337B617A693B
:105900007B689A42F0DB7B6818461837BD4680BD3D
:1059100080B483B000AF78604FF0FF3318460C3787
:10592000BD465DF8047B704780B483B000AF7860FB
:1059300039603B684FF400525A60002318460C3718
:10594000BD465DF8047B704780B483B000AF7860DB
:10595000012318460C37BD465DF8047B704780B4C0
:1059600085B000AFF860B9607A600023184614373C
:10597000BD465DF8047B704780B586B000AF7860A7
:10598000144A154BD31A7B617B693B61134B1B682F
:10599000002B02D1114B124A1A60104B1A687B6817
:1059A00013443A699A4207D205F0FCF803460C22E8
:1059B0001A604FF0FF3309E0084B1B68FB60074B90
:1059C0001A687B681344054A1360FB681846183749
:1059D000BD4680BD0000022000080000E03D002020
:1059E0007043002080B400AF064BD3F88830054ADE
:1059F00043F47003C2F8883000BFBD465DF8047BF5
:105A0000704700BF00ED00E080B592B000AF07F135
:105A1000400300221A605A6007F1240300221A6032
:105A20005A609A60DA601A615A619A613B1D2022BD
:105A30000021184605F043F83A4B3B4A1A60394BAF
:105A4000B3225A60374B00229A60364B42F20F72F3
:105A5000DA60344B00221A61324B00225A61314B1A
:105A600000229A612F4803F099FB0346002B01D0D6
:105A700004F0EAFE00233B6400237B6407F140034B
:105A80001946284803F084FF0346002B01D004F098
:105A9000DBFE70237B620023BB620023FB620023DA
:105AA0003B6300237B630023BB630023FB6307F19D
:105AB0002403002219461B4803F070FC0346002B08
:105AC00001D004F0C1FE60237B6207F124030422AD
:105AD0001946144803F062FC0346002B01D004F081
